:1000000000000000000000000000000000000000F0
:1000100000000000000000000000000000000000E0
:1000200000000000000000000000000000000000D0
:1000300000000000000000000000000000000000C0
:1000400000000000000000000000000000000000B0
:1000500000000000000000000000000000000000A0
:100060000000000000000000000000000000000090
:100070000000000000000000000000000000000080
:100080000000000000000000000000000000000070
:100090000000000000000000000000000000000060
:1000A0000000000000000000000000000000000050
:1000B0000000000000000000000000000000000040
:1000C0000000000000000000000000000000000030
:1000D0000000000000000000000000000000000020
:1000E0000000000000000000000000000000000010
:1000F0000000000000000000000000000000000000
:10010000000102030405060708090A0B0C0D0E0F77
:10011000000102030405060708090A0B0C0D0E0F67
:10012000000102030405060708090A0B0C0D0E0F57
:10013000000102030405060708090A0B0C0D0E0F47
:10014000000102030405060708090A0B0C0D0E0F37
:10015000000102030405060708090A0B0C0D0E0F27
:10016000000102030405060708090A0B0C0D0E0F17
:10017000000102030405060708090A0B0C0D0E0F07
:10018000000102030405060708090A0B0C0D0E0FF7
:10019000000102030405060708090A0B0C0D0E0FE7
:1001A000000102030405060708090A0B0C0D0E0FD7
:1001B000000102030405060708090A0B0C0D0E0FC7
:1001C000000102030405060708090A0B0C0D0E0FB7
:1001D000000102030405060708090A0B0C0D0E0FA7
:1001E000000102030405060708090A0B0C0D0E0F97
:1001F000000102030405060708090A0B0C0D0E0F87
:1002000020202020202020202020202020202020EE
:1002100020012001200120012001200120012001D6
:1002200020200202202002022020020220200202BE
:100230002001020320010203200102032001020326
:10024000202020200404040420202020040404048E
:1002500020012001040504052001200104050405F6
:1002600020200202040406062020020204040606DE
:100270002001020304050607200102030405060706
:10028000202020202020202008080808080808082E
:100290002001200120012001080908090809080996
:1002A000202002022020020208080A0A08080A0A7E
:1002B000200102032001020308090A0B08090A0BA6
:1002C0002020202004040404080808080C0C0C0C4E
:1002D0002001200104050405080908090C0D0C0D76
:1002E000202002020404060608080A0A0C0C0E0E5E
:1002F000200102030405060708090A0B0C0D0E0F66
:10030000200102030405060708090A0B0C0D0E0F55
:10031000010103030505070709090B0B0D0D0F0F5D
:1003200002030203060706070A0B0A0B0E0F0E0F45
:1003300003030303070707070B0B0B0B0F0F0F0F2D
:1003400004050607040506070C0D0E0F0C0D0E0F15
:1003500005050707050507070D0D0F0F0D0D0F0FFD
:1003600006070607060706070E0F0E0F0E0F0E0FE5
:1003700007070707070707070F0F0F0F0F0F0F0FCD
:1003800008090A0B0C0D0E0F08090A0B0C0D0E0FB5
:1003900009090B0B0D0D0F0F09090B0B0D0D0F0F9D
:1003A0000A0B0A0B0E0F0E0F0A0B0A0B0E0F0E0F85
:1003B0000B0B0B0B0F0F0F0F0B0B0B0B0F0F0F0F6D
:1003C0000C0D0E0F0C0D0E0F0C0D0E0F0C0D0E0F55
:1003D0000D0D0F0F0D0D0F0F0D0D0F0F0D0D0F0F3D
:1003E0000E0F0E0F0E0F0E0F0E0F0E0F0E0F0E0F25
:1003F0000F0F0F0F0F0F0F0F0F0F0F0F0F0F0F0F0D
:10040000200102030405060708090A0B0C0D0E0F54
:10041000012003020504070609080B0A0D0C0F0E44
:1004200002032001060704050A0B08090E0F0C0D34
:1004300003020120070605040B0A09080F0E0D0C24
:1004400004050607200102030C0D0E0F08090A0B14
:1004500005040706012003020D0C0F0E09080B0A04
:1004600006070405020320010E0F0C0D0A0B0809F4
:1004700007060504030201200F0E0D0C0B0A0908E4
:1004800008090A0B0C0D0E0F2001020304050607D4
:1004900009080B0A0D0C0F0E0120030205040706C4
:1004A0000A0B08090E0F0C0D0203200106070405B4
:1004B0000B0A09080F0E0D0C0302012007060504A4
:1004C0000C0D0E0F08090A0B040506072001020394
:1004D0000D0C0F0E09080B0A050407060120030284
:1004E0000E0F0C0D0A0B0809060704050203200174
:1004F0000F0E0D0C0B0A0908070605040302012064
:10050000200102030405060708090A0B0C0D0E0F53
:100510000102030405060708090A0B0C0D0E0F3033
:1005200002030405060708090A0B0C0D0E0F301113
:10053000030405060708090A0B0C0D0E0F301112F3
:100540000405060708090A0B0C0D0E0F30111213D3
:1005500005060708090A0B0C0D0E0F3011121314B3
:10056000060708090A0B0C0D0E0F30111213141593
:100570000708090A0B0C0D0E0F3011121314151673
:1005800008090A0B0C0D0E0F301112131415161753
:10059000090A0B0C0D0E0F30111213141516171833
:1005A0000A0B0C0D0E0F3011121314151617181913
:1005B0000B0C0D0E0F301112131415161718191AF3
:1005C0000C0D0E0F301112131415161718191A1BD3
:1005D0000D0E0F301112131415161718191A1B1CB3
:1005E0000E0F301112131415161718191A1B1C1D93
:1005F0000F301112131415161718191A1B1C1D1E73
:10060000301112131415161718191A1B1C1D1E1F52
:100610000F301112131415161718191A1B1C1D1E52
:100620000E0F301112131415161718191A1B1C1D52
:100630000D0E0F301112131415161718191A1B1C52
:100640000C0D0E0F301112131415161718191A1B52
:100650000B0C0D0E0F301112131415161718191A52
:100660000A0B0C0D0E0F3011121314151617181952
:10067000090A0B0C0D0E0F30111213141516171852
:1006800008090A0B0C0D0E0F301112131415161752
:100690000708090A0B0C0D0E0F3011121314151652
:1006A000060708090A0B0C0D0E0F30111213141552
:1006B00005060708090A0B0C0D0E0F301112131452
:1006C0000405060708090A0B0C0D0E0F3011121352
:1006D000030405060708090A0B0C0D0E0F30111252
:1006E00002030405060708090A0B0C0D0E0F301152
:1006F0000102030405060708090A0B0C0D0E0F3052
:10070000300F0E0D0C0B0A09080706050403020141
:1007100011300F0E0D0C0B0A090807060504030221
:100720001211300F0E0D0C0B0A0908070605040301
:10073000131211300F0E0D0C0B0A090807060504E1
:1007400014131211300F0E0D0C0B0A0908070605C1
:100750001514131211300F0E0D0C0B0A09080706A1
:10076000161514131211300F0E0D0C0B0A09080781
:1007700017161514131211300F0E0D0C0B0A090861
:100780001817161514131211300F0E0D0C0B0A0941
:10079000191817161514131211300F0E0D0C0B0A21
:1007A0001A191817161514131211300F0E0D0C0B01
:1007B0001B1A191817161514131211300F0E0D0CE1
:1007C0001C1B1A191817161514131211300F0E0DC1
:1007D0001D1C1B1A191817161514131211300F0EA1
:1007E0001E1D1C1B1A191817161514131211300F81
:1007F0001F1E1D1C1B1A1918171615141312113061
:10080000200102030405060708090A0B0C0D0E0F50
:10081000200102030405060708090A0B0C0D0E0F40
:10082000200102030405060708090A0B0C0D0E0F30
:10083000200102030405060708090A0B0C0D0E0F20
:10084000200102030405060708090A0B0C0D0E0F10
:10085000200102030405060708090A0B0C0D0E0F00
:10086000200102030405060708090A0B0C0D0E0FF0
:10087000200102030405060708090A0B0C0D0E0FE0
:10088000200102030405060708090A0B0C0D0E0FD0
:10089000200102030405060708090A0B0C0D0E0FC0
:1008A000200102030405060708090A0B0C0D0E0FB0
:1008B000200102030405060708090A0B0C0D0E0FA0
:1008C000200102030405060708090A0B0C0D0E0F90
:1008D000200102030405060708090A0B0C0D0E0F80
:1008E000200102030405060708090A0B0C0D0E0F70
:1008F000200102030405060708090A0B0C0D0E0F60
:1009000020202020202020202020202020202020E7
:1009100020202020202020202020202020202020D7
:1009200020202020202020202020202020202020C7
:1009300020202020202020202020202020202020B7
:00000001FF
